{
  "contractName": "Wallet",
  "abi": [
    {
      "inputs": [],
      "stateMutability": "nonpayable",
      "type": "constructor"
    },
    {
      "anonymous": false,
      "inputs": [
        {
          "indexed": true,
          "internalType": "bytes32",
          "name": "role",
          "type": "bytes32"
        },
        {
          "indexed": true,
          "internalType": "bytes32",
          "name": "previousAdminRole",
          "type": "bytes32"
        },
        {
          "indexed": true,
          "internalType": "bytes32",
          "name": "newAdminRole",
          "type": "bytes32"
        }
      ],
      "name": "RoleAdminChanged",
      "type": "event"
    },
    {
      "anonymous": false,
      "inputs": [
        {
          "indexed": true,
          "internalType": "bytes32",
          "name": "role",
          "type": "bytes32"
        },
        {
          "indexed": true,
          "internalType": "address",
          "name": "account",
          "type": "address"
        },
        {
          "indexed": true,
          "internalType": "address",
          "name": "sender",
          "type": "address"
        }
      ],
      "name": "RoleGranted",
      "type": "event"
    },
    {
      "anonymous": false,
      "inputs": [
        {
          "indexed": true,
          "internalType": "bytes32",
          "name": "role",
          "type": "bytes32"
        },
        {
          "indexed": true,
          "internalType": "address",
          "name": "account",
          "type": "address"
        },
        {
          "indexed": true,
          "internalType": "address",
          "name": "sender",
          "type": "address"
        }
      ],
      "name": "RoleRevoked",
      "type": "event"
    },
    {
      "anonymous": false,
      "inputs": [
        {
          "indexed": false,
          "internalType": "address",
          "name": "depositer",
          "type": "address"
        },
        {
          "indexed": false,
          "internalType": "uint256",
          "name": "amount",
          "type": "uint256"
        }
      ],
      "name": "deposited",
      "type": "event"
    },
    {
      "anonymous": false,
      "inputs": [
        {
          "indexed": false,
          "internalType": "address",
          "name": "depositer",
          "type": "address"
        },
        {
          "indexed": false,
          "internalType": "uint256",
          "name": "amount",
          "type": "uint256"
        }
      ],
      "name": "withdrawn",
      "type": "event"
    },
    {
      "inputs": [],
      "name": "DEFAULT_ADMIN_ROLE",
      "outputs": [
        {
          "internalType": "bytes32",
          "name": "",
          "type": "bytes32"
        }
      ],
      "stateMutability": "view",
      "type": "function"
    },
    {
      "inputs": [],
      "name": "MANAGER_ROLE",
      "outputs": [
        {
          "internalType": "bytes32",
          "name": "",
          "type": "bytes32"
        }
      ],
      "stateMutability": "view",
      "type": "function"
    },
    {
      "inputs": [
        {
          "internalType": "bytes32",
          "name": "role",
          "type": "bytes32"
        }
      ],
      "name": "getRoleAdmin",
      "outputs": [
        {
          "internalType": "bytes32",
          "name": "",
          "type": "bytes32"
        }
      ],
      "stateMutability": "view",
      "type": "function"
    },
    {
      "inputs": [
        {
          "internalType": "bytes32",
          "name": "role",
          "type": "bytes32"
        },
        {
          "internalType": "uint256",
          "name": "index",
          "type": "uint256"
        }
      ],
      "name": "getRoleMember",
      "outputs": [
        {
          "internalType": "address",
          "name": "",
          "type": "address"
        }
      ],
      "stateMutability": "view",
      "type": "function"
    },
    {
      "inputs": [
        {
          "internalType": "bytes32",
          "name": "role",
          "type": "bytes32"
        }
      ],
      "name": "getRoleMemberCount",
      "outputs": [
        {
          "internalType": "uint256",
          "name": "",
          "type": "uint256"
        }
      ],
      "stateMutability": "view",
      "type": "function"
    },
    {
      "inputs": [
        {
          "internalType": "bytes32",
          "name": "role",
          "type": "bytes32"
        },
        {
          "internalType": "address",
          "name": "account",
          "type": "address"
        }
      ],
      "name": "grantRole",
      "outputs": [],
      "stateMutability": "nonpayable",
      "type": "function"
    },
    {
      "inputs": [
        {
          "internalType": "bytes32",
          "name": "role",
          "type": "bytes32"
        },
        {
          "internalType": "address",
          "name": "account",
          "type": "address"
        }
      ],
      "name": "hasRole",
      "outputs": [
        {
          "internalType": "bool",
          "name": "",
          "type": "bool"
        }
      ],
      "stateMutability": "view",
      "type": "function"
    },
    {
      "inputs": [
        {
          "internalType": "bytes32",
          "name": "role",
          "type": "bytes32"
        },
        {
          "internalType": "address",
          "name": "account",
          "type": "address"
        }
      ],
      "name": "renounceRole",
      "outputs": [],
      "stateMutability": "nonpayable",
      "type": "function"
    },
    {
      "inputs": [
        {
          "internalType": "bytes32",
          "name": "role",
          "type": "bytes32"
        },
        {
          "internalType": "address",
          "name": "account",
          "type": "address"
        }
      ],
      "name": "revokeRole",
      "outputs": [],
      "stateMutability": "nonpayable",
      "type": "function"
    },
    {
      "inputs": [
        {
          "internalType": "bytes4",
          "name": "interfaceId",
          "type": "bytes4"
        }
      ],
      "name": "supportsInterface",
      "outputs": [
        {
          "internalType": "bool",
          "name": "",
          "type": "bool"
        }
      ],
      "stateMutability": "view",
      "type": "function"
    },
    {
      "inputs": [
        {
          "internalType": "bytes32",
          "name": "token_",
          "type": "bytes32"
        },
        {
          "internalType": "address",
          "name": "tokenAddress_",
          "type": "address"
        }
      ],
      "name": "addToken",
      "outputs": [],
      "stateMutability": "nonpayable",
      "type": "function"
    },
    {
      "inputs": [
        {
          "internalType": "bytes32",
          "name": "token_",
          "type": "bytes32"
        },
        {
          "internalType": "uint256",
          "name": "amount_",
          "type": "uint256"
        }
      ],
      "name": "withdraw",
      "outputs": [],
      "stateMutability": "nonpayable",
      "type": "function"
    },
    {
      "inputs": [
        {
          "internalType": "bytes32",
          "name": "token_",
          "type": "bytes32"
        },
        {
          "internalType": "uint256",
          "name": "amount_",
          "type": "uint256"
        }
      ],
      "name": "deposit",
      "outputs": [],
      "stateMutability": "nonpayable",
      "type": "function"
    }
  ],
  "bytecode": "0x60806040523480156200001157600080fd5b5060016002819055506200005b7f241ecf16d79d0f8dbfb92cbc07fe17840425976cf0667f022fe9877caa831b086200004f6200006160201b60201c565b6200006960201b60201c565b620002f7565b600033905090565b620000808282620000b160201b62000e9f1760201c565b620000ac8160016000858152602001908152602001600020620000c760201b62000ead1790919060201c565b505050565b620000c38282620000ff60201b60201c565b5050565b6000620000f7836000018373ffffffffffffffffffffffffffffffffffffffff1660001b620001f060201b60201c565b905092915050565b6200011182826200026a60201b60201c565b620001ec57600160008084815260200190815260200160002060000160008373ffffffffffffffffffffffffffffffffffffffff1673ffffffffffffffffffffffffffffffffffffffff16815260200190815260200160002060006101000a81548160ff021916908315150217905550620001916200006160201b60201c565b73ffffffffffffffffffffffffffffffffffffffff168173ffffffffffffffffffffffffffffffffffffffff16837f2f8788117e7eff1d82e926ec794901d17c78024a50270940304540a733656f0d60405160405180910390a45b5050565b6000620002048383620002d460201b60201c565b6200025f57826000018290806001815401808255809150506001900390600052602060002001600090919091909150558260000180549050836001016000848152602001908152602001600020819055506001905062000264565b600090505b92915050565b600080600084815260200190815260200160002060000160008373ffffffffffffffffffffffffffffffffffffffff1673ffffffffffffffffffffffffffffffffffffffff16815260200190815260200160002060009054906101000a900460ff16905092915050565b600080836001016000848152602001908152602001600020541415905092915050565b61224280620003076000396000f3fe608060405234801561001057600080fd5b50600436106100cf5760003560e01c80639010d07c1161008c578063a217fddf11610066578063a217fddf14610220578063ca15c8731461023e578063d547741f1461026e578063ec87621c1461028a576100cf565b80639010d07c146101a457806391d14854146101d45780639776aacf14610204576100cf565b806301ffc9a7146100d4578063040cf020146101045780631de26e1614610120578063248a9ca31461013c5780632f2ff15d1461016c57806336568abe14610188575b600080fd5b6100ee60048036038101906100e991906118fe565b6102a8565b6040516100fb9190611bf4565b60405180910390f35b61011e600480360381019061011991906118be565b610322565b005b61013a600480360381019061013591906118be565b610662565b005b61015660048036038101906101519190611851565b610b72565b6040516101639190611c0f565b60405180910390f35b6101866004803603810190610181919061187e565b610b91565b005b6101a2600480360381019061019d919061187e565b610bc5565b005b6101be60048036038101906101b991906118be565b610bf9565b6040516101cb9190611b50565b60405180910390f35b6101ee60048036038101906101e9919061187e565b610c28565b6040516101fb9190611bf4565b60405180910390f35b61021e6004803603810190610219919061187e565b610c92565b005b610228610e1c565b6040516102359190611c0f565b60405180910390f35b61025860048036038101906102539190611851565b610e23565b6040516102659190611d0c565b60405180910390f35b6102886004803603810190610283919061187e565b610e47565b005b610292610e7b565b60405161029f9190611c0f565b60405180910390f35b60007f5a05180f000000000000000000000000000000000000000000000000000000007bffffffffffffffffffffffffffffffffffffffffffffffffffffffff1916827bffffffffffffffffffffffffffffffffffffffffffffffffffffffff1916148061031b575061031a82610edd565b5b9050919050565b81600073ffffffffffffffffffffffffffffffffffffffff166004600083815260200190815260200160002060009054906101000a900473ffffffffffffffffffffffffffffffffffffffff1673ffffffffffffffffffffffffffffffffffffffff16146103c5576040517f08c379a00000000000000000000000000000000000000000000000000000000081526004016103bc90611c6c565b60405180910390fd5b60028054141561040a576040517f08c379a000000000000000000000000000000000000000000000000000000000815260040161040190611ccc565b60405180910390fd5b6002808190555081600560003373ffffffffffffffffffffffffffffffffffffffff1673ffffffffffffffffffffffffffffffffffffffff16815260200190815260200160002060008581526020019081526020016000205410156104a4576040517f08c379a000000000000000000000000000000000000000000000000000000000815260040161049b90611cac565b60405180910390fd5b61050782600560003373ffffffffffffffffffffffffffffffffffffffff1673ffffffffffffffffffffffffffffffffffffffff168152602001908152602001600020600086815260200190815260200160002054610f5790919063ffffffff16565b600560003373ffffffffffffffffffffffffffffffffffffffff1673ffffffffffffffffffffffffffffffffffffffff1681526020019081526020016000206000858152602001908152602001600020819055506004600084815260200190815260200160002060009054906101000a900473ffffffffffffffffffffffffffffffffffffffff1673ffffffffffffffffffffffffffffffffffffffff1663a9059cbb33846040518363ffffffff1660e01b81526004016105c9929190611bcb565b602060405180830381600087803b1580156105e357600080fd5b505af11580156105f7573d6000803e3d6000fd5b505050506040513d601f19601f8201168201806040525081019061061b9190611824565b507f6fb24f3ad0678f9d138e80b17293be051d87911eb34e9e60f0d1b9c3805e885a338360405161064d929190611bcb565b60405180910390a16001600281905550505050565b81600073ffffffffffffffffffffffffffffffffffffffff166004600083815260200190815260200160002060009054906101000a900473ffffffffffffffffffffffffffffffffffffffff1673ffffffffffffffffffffffffffffffffffffffff1614610705576040517f08c379a00000000000000000000000000000000000000000000000000000000081526004016106fc90611c6c565b60405180910390fd5b60028054141561074a576040517f08c379a000000000000000000000000000000000000000000000000000000000815260040161074190611ccc565b60405180910390fd5b6002808190555081600560003373ffffffffffffffffffffffffffffffffffffffff1673ffffffffffffffffffffffffffffffffffffffff16815260200190815260200160002060008581526020019081526020016000205410156107e4576040517f08c379a00000000000000000000000000000000000000000000000000000000081526004016107db90611cac565b60405180910390fd5b60006004600085815260200190815260200160002060009054906101000a900473ffffffffffffffffffffffffffffffffffffffff169050828173ffffffffffffffffffffffffffffffffffffffff1663dd62ed3e33306040518363ffffffff1660e01b8152600401610858929190611b6b565b60206040518083038186803b15801561087057600080fd5b505afa158015610884573d6000803e3d6000fd5b505050506040513d601f19601f820116820180604052508101906108a8919061192b565b1115610943578073ffffffffffffffffffffffffffffffffffffffff166323b872dd3330866040518463ffffffff1660e01b81526004016108eb93929190611b94565b602060405180830381600087803b15801561090557600080fd5b505af1158015610919573d6000803e3d6000fd5b505050506040513d601f19601f8201168201806040525081019061093d9190611824565b50610a74565b60008173ffffffffffffffffffffffffffffffffffffffff1663095ea7b330866040518363ffffffff1660e01b8152600401610980929190611bcb565b602060405180830381600087803b15801561099a57600080fd5b505af11580156109ae573d6000803e3d6000fd5b505050506040513d601f19601f820116820180604052508101906109d29190611824565b9050600115158115151415610a72578173ffffffffffffffffffffffffffffffffffffffff166323b872dd3330876040518463ffffffff1660e01b8152600401610a1e93929190611b94565b602060405180830381600087803b158015610a3857600080fd5b505af1158015610a4c573d6000803e3d6000fd5b505050506040513d601f19601f82011682018060405250810190610a709190611824565b505b505b610ad783600560003373ffffffffffffffffffffffffffffffffffffffff1673ffffffffffffffffffffffffffffffffffffffff168152602001908152602001600020600087815260200190815260200160002054610f6d90919063ffffffff16565b600560003373ffffffffffffffffffffffffffffffffffffffff1673ffffffffffffffffffffffffffffffffffffffff1681526020019081526020016000206000868152602001908152602001600020819055507f688e89c1496876b0d792df75671fbe827183660b170bb8983d82511a6a4b7d1b3384604051610b5c929190611bcb565b60405180910390a1506001600281905550505050565b6000806000838152602001908152602001600020600101549050919050565b610b9b8282610f83565b610bc08160016000858152602001908152602001600020610ead90919063ffffffff16565b505050565b610bcf8282610fac565b610bf4816001600085815260200190815260200160002061102f90919063ffffffff16565b505050565b6000610c20826001600086815260200190815260200160002061105f90919063ffffffff16565b905092915050565b600080600084815260200190815260200160002060000160008373ffffffffffffffffffffffffffffffffffffffff1673ffffffffffffffffffffffffffffffffffffffff16815260200190815260200160002060009054906101000a900460ff16905092915050565b610cbc7f241ecf16d79d0f8dbfb92cbc07fe17840425976cf0667f022fe9877caa831b0833610c28565b610cfb576040517f08c379a0000000000000000000000000000000000000000000000000000000008152600401610cf290611c8c565b60405180910390fd5b600073ffffffffffffffffffffffffffffffffffffffff166004600084815260200190815260200160002060009054906101000a900473ffffffffffffffffffffffffffffffffffffffff1673ffffffffffffffffffffffffffffffffffffffff1614610d9d576040517f08c379a0000000000000000000000000000000000000000000000000000000008152600401610d9490611c6c565b60405180910390fd5b806004600084815260200190815260200160002060006101000a81548173ffffffffffffffffffffffffffffffffffffffff021916908373ffffffffffffffffffffffffffffffffffffffff16021790555060038290806001815401808255809150506001900390600052602060002001600090919091909150555050565b6000801b81565b6000610e4060016000848152602001908152602001600020611079565b9050919050565b610e51828261108e565b610e76816001600085815260200190815260200160002061102f90919063ffffffff16565b505050565b7f241ecf16d79d0f8dbfb92cbc07fe17840425976cf0667f022fe9877caa831b0881565b610ea982826110b7565b5050565b6000610ed5836000018373ffffffffffffffffffffffffffffffffffffffff1660001b611197565b905092915050565b60007f7965db0b000000000000000000000000000000000000000000000000000000007bffffffffffffffffffffffffffffffffffffffffffffffffffffffff1916827bffffffffffffffffffffffffffffffffffffffffffffffffffffffff19161480610f505750610f4f82611207565b5b9050919050565b60008183610f659190611dfe565b905092915050565b60008183610f7b9190611d4e565b905092915050565b610f8c82610b72565b610f9d81610f98611271565b611279565b610fa783836110b7565b505050565b610fb4611271565b73ffffffffffffffffffffffffffffffffffffffff168173ffffffffffffffffffffffffffffffffffffffff1614611021576040517f08c379a000000000000000000000000000000000000000000000000000000000815260040161101890611cec565b60405180910390fd5b61102b8282611316565b5050565b6000611057836000018373ffffffffffffffffffffffffffffffffffffffff1660001b6113f7565b905092915050565b600061106e836000018361150b565b60001c905092915050565b600061108782600001611536565b9050919050565b61109782610b72565b6110a8816110a3611271565b611279565b6110b28383611316565b505050565b6110c18282610c28565b61119357600160008084815260200190815260200160002060000160008373ffffffffffffffffffffffffffffffffffffffff1673ffffffffffffffffffffffffffffffffffffffff16815260200190815260200160002060006101000a81548160ff021916908315150217905550611138611271565b73ffffffffffffffffffffffffffffffffffffffff168173ffffffffffffffffffffffffffffffffffffffff16837f2f8788117e7eff1d82e926ec794901d17c78024a50270940304540a733656f0d60405160405180910390a45b5050565b60006111a38383611547565b6111fc578260000182908060018154018082558091505060019003906000526020600020016000909190919091505582600001805490508360010160008481526020019081526020016000208190555060019050611201565b600090505b92915050565b60007f01ffc9a7000000000000000000000000000000000000000000000000000000007bffffffffffffffffffffffffffffffffffffffffffffffffffffffff1916827bffffffffffffffffffffffffffffffffffffffffffffffffffffffff1916149050919050565b600033905090565b6112838282610c28565b611312576112a88173ffffffffffffffffffffffffffffffffffffffff16601461156a565b6112b68360001c602061156a565b6040516020016112c7929190611b16565b6040516020818303038152906040526040517f08c379a00000000000000000000000000000000000000000000000000000000081526004016113099190611c2a565b60405180910390fd5b5050565b6113208282610c28565b156113f357600080600084815260200190815260200160002060000160008373ffffffffffffffffffffffffffffffffffffffff1673ffffffffffffffffffffffffffffffffffffffff16815260200190815260200160002060006101000a81548160ff021916908315150217905550611398611271565b73ffffffffffffffffffffffffffffffffffffffff168173ffffffffffffffffffffffffffffffffffffffff16837ff6391f5c32d9c69d2a47ea670b442974b53935d1edc7fd64eb21e047a839171b60405160405180910390a45b5050565b600080836001016000848152602001908152602001600020549050600081146114ff5760006001826114299190611dfe565b90506000600186600001805490506114419190611dfe565b90508181146114b057600086600001828154811061146257611461611f6b565b5b906000526020600020015490508087600001848154811061148657611485611f6b565b5b90600052602060002001819055508387600101600083815260200190815260200160002081905550505b856000018054806114c4576114c3611f3c565b5b600190038181906000526020600020016000905590558560010160008681526020019081526020016000206000905560019350505050611505565b60009150505b92915050565b600082600001828154811061152357611522611f6b565b5b9060005260206000200154905092915050565b600081600001805490509050919050565b600080836001016000848152602001908152602001600020541415905092915050565b60606000600283600261157d9190611da4565b6115879190611d4e565b67ffffffffffffffff8111156115a05761159f611f9a565b5b6040519080825280601f01601f1916602001820160405280156115d25781602001600182028036833780820191505090505b5090507f30000000000000000000000000000000000000000000000000000000000000008160008151811061160a57611609611f6b565b5b60200101907effffffffffffffffffffffffffffffffffffffffffffffffffffffffffffff1916908160001a9053507f78000000000000000000000000000000000000000000000000000000000000008160018151811061166e5761166d611f6b565b5b60200101907effffffffffffffffffffffffffffffffffffffffffffffffffffffffffffff1916908160001a905350600060018460026116ae9190611da4565b6116b89190611d4e565b90505b6001811115611758577f3031323334353637383961626364656600000000000000000000000000000000600f8616601081106116fa576116f9611f6b565b5b1a60f81b82828151811061171157611710611f6b565b5b60200101907effffffffffffffffffffffffffffffffffffffffffffffffffffffffffffff1916908160001a905350600485901c94508061175190611ee3565b90506116bb565b506000841461179c576040517f08c379a000000000000000000000000000000000000000000000000000000000815260040161179390611c4c565b60405180910390fd5b8091505092915050565b6000813590506117b581612199565b92915050565b6000815190506117ca816121b0565b92915050565b6000813590506117df816121c7565b92915050565b6000813590506117f4816121de565b92915050565b600081359050611809816121f5565b92915050565b60008151905061181e816121f5565b92915050565b60006020828403121561183a57611839611fc9565b5b6000611848848285016117bb565b91505092915050565b60006020828403121561186757611866611fc9565b5b6000611875848285016117d0565b91505092915050565b6000806040838503121561189557611894611fc9565b5b60006118a3858286016117d0565b92505060206118b4858286016117a6565b9150509250929050565b600080604083850312156118d5576118d4611fc9565b5b60006118e3858286016117d0565b92505060206118f4858286016117fa565b9150509250929050565b60006020828403121561191457611913611fc9565b5b6000611922848285016117e5565b91505092915050565b60006020828403121561194157611940611fc9565b5b600061194f8482850161180f565b91505092915050565b61196181611e32565b82525050565b61197081611e44565b82525050565b61197f81611e50565b82525050565b600061199082611d27565b61199a8185611d32565b93506119aa818560208601611eb0565b6119b381611fce565b840191505092915050565b60006119c982611d27565b6119d38185611d43565b93506119e3818560208601611eb0565b80840191505092915050565b60006119fc602083611d32565b9150611a0782611fdf565b602082019050919050565b6000611a1f602183611d32565b9150611a2a82612008565b604082019050919050565b6000611a42602483611d32565b9150611a4d82612057565b604082019050919050565b6000611a65601483611d32565b9150611a70826120a6565b602082019050919050565b6000611a88601783611d43565b9150611a93826120cf565b601782019050919050565b6000611aab601f83611d32565b9150611ab6826120f8565b602082019050919050565b6000611ace601183611d43565b9150611ad982612121565b601182019050919050565b6000611af1602f83611d32565b9150611afc8261214a565b604082019050919050565b611b1081611ea6565b82525050565b6000611b2182611a7b565b9150611b2d82856119be565b9150611b3882611ac1565b9150611b4482846119be565b91508190509392505050565b6000602082019050611b656000830184611958565b92915050565b6000604082019050611b806000830185611958565b611b8d6020830184611958565b9392505050565b6000606082019050611ba96000830186611958565b611bb66020830185611958565b611bc36040830184611b07565b949350505050565b6000604082019050611be06000830185611958565b611bed6020830184611b07565b9392505050565b6000602082019050611c096000830184611967565b92915050565b6000602082019050611c246000830184611976565b92915050565b60006020820190508181036000830152611c448184611985565b905092915050565b60006020820190508181036000830152611c65816119ef565b9050919050565b60006020820190508181036000830152611c8581611a12565b9050919050565b60006020820190508181036000830152611ca581611a35565b9050919050565b60006020820190508181036000830152611cc581611a58565b9050919050565b60006020820190508181036000830152611ce581611a9e565b9050919050565b60006020820190508181036000830152611d0581611ae4565b9050919050565b6000602082019050611d216000830184611b07565b92915050565b600081519050919050565b600082825260208201905092915050565b600081905092915050565b6000611d5982611ea6565b9150611d6483611ea6565b9250827fffffffffffffffffffffffffffffffffffffffffffffffffffffffffffffffff03821115611d9957611d98611f0d565b5b828201905092915050565b6000611daf82611ea6565b9150611dba83611ea6565b9250817fffffffffffffffffffffffffffffffffffffffffffffffffffffffffffffffff0483118215151615611df357611df2611f0d565b5b828202905092915050565b6000611e0982611ea6565b9150611e1483611ea6565b925082821015611e2757611e26611f0d565b5b828203905092915050565b6000611e3d82611e86565b9050919050565b60008115159050919050565b6000819050919050565b60007fffffffff0000000000000000000000000000000000000000000000000000000082169050919050565b600073ffffffffffffffffffffffffffffffffffffffff82169050919050565b6000819050919050565b60005b83811015611ece578082015181840152602081019050611eb3565b83811115611edd576000848401525b50505050565b6000611eee82611ea6565b91506000821415611f0257611f01611f0d565b5b600182039050919050565b7f4e487b7100000000000000000000000000000000000000000000000000000000600052601160045260246000fd5b7f4e487b7100000000000000000000000000000000000000000000000000000000600052603160045260246000fd5b7f4e487b7100000000000000000000000000000000000000000000000000000000600052603260045260246000fd5b7f4e487b7100000000000000000000000000000000000000000000000000000000600052604160045260246000fd5b600080fd5b6000601f19601f8301169050919050565b7f537472696e67733a20686578206c656e67746820696e73756666696369656e74600082015250565b7f5468697320746f6b656e2068617320616c7265616479206265656e206164646560008201527f6400000000000000000000000000000000000000000000000000000000000000602082015250565b7f4d7573742068617665206d616e6167657220726f6c6520746f2061646420746f60008201527f6b656e7300000000000000000000000000000000000000000000000000000000602082015250565b7f496e73756666696369656e742062616c616e6365000000000000000000000000600082015250565b7f416363657373436f6e74726f6c3a206163636f756e7420000000000000000000600082015250565b7f5265656e7472616e637947756172643a207265656e7472616e742063616c6c00600082015250565b7f206973206d697373696e6720726f6c6520000000000000000000000000000000600082015250565b7f416363657373436f6e74726f6c3a2063616e206f6e6c792072656e6f756e636560008201527f20726f6c657320666f722073656c660000000000000000000000000000000000602082015250565b6121a281611e32565b81146121ad57600080fd5b50565b6121b981611e44565b81146121c457600080fd5b50565b6121d081611e50565b81146121db57600080fd5b50565b6121e781611e5a565b81146121f257600080fd5b50565b6121fe81611ea6565b811461220957600080fd5b5056fea264697066735822122023915126f8029f32bdab99dffdee5ddb9be01b11ba344f41a15bc24ef646278a64736f6c63430008060033",
  "immutableReferences": {},
  "source": "// SPDX-License-Identifier: MIT\r\npragma solidity ^0.8.0;\r\n\r\nimport \"@openzeppelin/contracts/access/AccessControlEnumerable.sol\";\r\nimport \"@openzeppelin/contracts/utils/math/SafeMath.sol\";\r\nimport \"@openzeppelin/contracts/token/ERC20/IERC20.sol\";\r\nimport \"@openzeppelin/contracts/security/ReentrancyGuard.sol\";\r\nimport \"./TokenManager.sol\";\r\n\r\ncontract Wallet is AccessControlEnumerable, ReentrancyGuard, TokenManager {\r\n    using SafeMath for uint256;\r\n\r\n    bytes32 public constant MANAGER_ROLE = keccak256(\"MANAGER_ROLE\");\r\n\r\n    constructor() {\r\n        _setupRole(MANAGER_ROLE, _msgSender());\r\n    }\r\n\r\n    /**\r\n     * Mapping from address to balance of a particular token\r\n     */\r\n    mapping(address => mapping(bytes32 => uint256)) balanceMapping;\r\n\r\n    /**\r\n     * Deposit has occurred\r\n     */\r\n    event deposited(address depositer, uint256 amount);\r\n\r\n    /**\r\n     * Wtihdrawl has occurred\r\n     */\r\n    event withdrawn(address depositer, uint256 amount);\r\n\r\n    /**\r\n     * Function to add token assets into the accepted token lists\r\n     */\r\n    function addToken(bytes32 token_, address tokenAddress_) external {\r\n        require(\r\n            hasRole(MANAGER_ROLE, msg.sender),\r\n            \"Must have manager role to add tokens\"\r\n        );\r\n        require(\r\n            tokenAddress[token_] == address(0),\r\n            \"This token has already been added\"\r\n        );\r\n        tokenAddress[token_] = tokenAddress_;\r\n        tokenList.push(token_);\r\n    }\r\n\r\n    /**\r\n     * Withdraw function\r\n     * @dev funds are taken out back from the contract\r\n     * Using the Check, Effect, Interaction Rule\r\n     * Is Reentrancy module neccassary over here?\r\n     */\r\n    function withdraw(bytes32 token_, uint256 amount_)\r\n        external\r\n        tokenExists(token_)\r\n        nonReentrant\r\n    {\r\n        require(\r\n            balanceMapping[msg.sender][token_] >= amount_,\r\n            \"Insufficient balance\"\r\n        );\r\n\r\n        balanceMapping[msg.sender][token_] = balanceMapping[msg.sender][token_]\r\n        .sub(amount_);\r\n\r\n        IERC20(tokenAddress[token_]).transfer(msg.sender, amount_);\r\n\r\n        emit withdrawn(msg.sender, amount_);\r\n    }\r\n\r\n    /**\r\n     * @dev funds are deposited into the contract\r\n     * Using the Check, Effect, Interaction Rule\r\n     * Using the openzeppelin Reentrancy module\r\n     */\r\n    function deposit(bytes32 token_, uint256 amount_)\r\n        external\r\n        tokenExists(token_)\r\n        nonReentrant\r\n    {\r\n        require(\r\n            balanceMapping[msg.sender][token_] >= amount_,\r\n            \"Insufficient balance\"\r\n        );\r\n\r\n        IERC20 ERC20 = IERC20(tokenAddress[token_]);\r\n\r\n        if (ERC20.allowance(msg.sender, address(this)) > amount_) {\r\n            ERC20.transferFrom(msg.sender, address(this), amount_);\r\n        } else {\r\n            bool isApproved = ERC20.approve(address(this), amount_);\r\n            if (isApproved == true) {\r\n                ERC20.transferFrom(msg.sender, address(this), amount_);\r\n            }\r\n        }\r\n\r\n        balanceMapping[msg.sender][token_] = balanceMapping[msg.sender][token_]\r\n        .add(amount_);\r\n\r\n        emit deposited(msg.sender, amount_);\r\n    }\r\n}\r\n",
  "sourcePath": "C:/Users/shelly/Desktop/Blockchain/Ethereum/DeX/contracts/Wallet.sol",
  "compiler": {
    "name": "solc",
    "version": "0.8.6+commit.11564f7e.Emscripten.clang"
  },
  "schemaVersion": "3.4.1",
  "updatedAt": "2021-07-26T12:35:02.274Z",
  "devdoc": {
    "kind": "dev",
    "methods": {
      "deposit(bytes32,uint256)": {
        "details": "funds are deposited into the contract Using the Check, Effect, Interaction Rule Using the openzeppelin Reentrancy module"
      },
      "getRoleAdmin(bytes32)": {
        "details": "Returns the admin role that controls `role`. See {grantRole} and {revokeRole}. To change a role's admin, use {_setRoleAdmin}."
      },
      "getRoleMember(bytes32,uint256)": {
        "details": "Returns one of the accounts that have `role`. `index` must be a value between 0 and {getRoleMemberCount}, non-inclusive. Role bearers are not sorted in any particular way, and their ordering may change at any point. WARNING: When using {getRoleMember} and {getRoleMemberCount}, make sure you perform all queries on the same block. See the following https://forum.openzeppelin.com/t/iterating-over-elements-on-enumerableset-in-openzeppelin-contracts/2296[forum post] for more information."
      },
      "getRoleMemberCount(bytes32)": {
        "details": "Returns the number of accounts that have `role`. Can be used together with {getRoleMember} to enumerate all bearers of a role."
      },
      "grantRole(bytes32,address)": {
        "details": "Overload {grantRole} to track enumerable memberships"
      },
      "hasRole(bytes32,address)": {
        "details": "Returns `true` if `account` has been granted `role`."
      },
      "renounceRole(bytes32,address)": {
        "details": "Overload {renounceRole} to track enumerable memberships"
      },
      "revokeRole(bytes32,address)": {
        "details": "Overload {revokeRole} to track enumerable memberships"
      },
      "supportsInterface(bytes4)": {
        "details": "See {IERC165-supportsInterface}."
      },
      "withdraw(bytes32,uint256)": {
        "details": "funds are taken out back from the contract Using the Check, Effect, Interaction Rule Is Reentrancy module neccassary over here?"
      }
    },
    "version": 1
  },
  "userdoc": {
    "events": {
      "deposited(address,uint256)": {
        "notice": "Deposit has occurred"
      },
      "withdrawn(address,uint256)": {
        "notice": "Wtihdrawl has occurred"
      }
    },
    "kind": "user",
    "methods": {
      "addToken(bytes32,address)": {
        "notice": "Function to add token assets into the accepted token lists"
      },
      "withdraw(bytes32,uint256)": {
        "notice": "Withdraw function"
      }
    },
    "version": 1
  }
}